:06000000000080310A2817
:100008007E148031893108297E1009008031362814
:100038008B013F00ED0121001708C13918389700DE
:1000480080316F20803164008331D2238031883140
:100058005520803183313A2380318031CC20803162
:10006800803127287E1020003928FC01FD01FC0A78
:100078000319FD0A03307D02E83003197C02031CD2
:100088003B288C194A2880311C2080312300151305
:100098000930920091011514000000006D30230012
:1000A8001306031D6B2834301406031D6B28093012
:1000B8009200043091001514000000002300130A78
:1000C8003F300319140603196B288931042980313C
:1000D8001C2080310A28FC309900903027009B00B2
:1000E80021001A1F7428002680310E1021000E10DE
:1000F800A32BBE2780312100EB012300151400003B
:10010800000021006B08203E860003308700230092
:10011800130881002100EB0A6B08203E86002300AB
:10012800140881002100EB0A230097278031031C63
:1001380081286D302600A0003430A1006400BE275D
:1001480080311516B5307522803115151513151225
:1001580009309200910195162100EB013E306B06A3
:10016800031DB8282300951221006B0877278031DA
:10017800EB0A6B0890278031B530EB0A7522803185
:1001880097278031031CB228230095161511080003
:10019800063021006D06031D08003D008E1808007A
:1001A80022006C08031D562A2000AC1B08004030B2
:1001B800F000A030042380312200EC01EC0AFB019E
:1001C8007B08203E86000230870040308101FB0A10
:1001D8007B0203180800E4282000B01B0800023046
:1001E8002400A0003A30A1001230A201A20AA30103
:1001F800A30AA701A601A5002E30A401AB01AA01FC
:10020800A9000330A801AC000130B001AF000E30E6
:10021800AE01AD000430B100B201B301B401B500C4
:100228000130B901B8000630B701B601BA00FF3095
:10023800BB01BC01BD01BE00A530D9004030F000B3
:10024800203079232200EC0108002200EB01EB0AA0
:1002580025002108031D26292200EB01262922005A
:100268000930E001E10064002200610823009200E7
:10027800220060082300910015131516B530752269
:10028800803120302200E0070318E10A1F306102A4
:10029800FF3003196002031C3729230091019201E2
:1002A80015171516B5307522803126292408031D27
:1002B800612901302302031C73292408031D6C29BA
:1002C8000E3021020030223B0130233B031C7029F1
:1002D80022006B08031D26293B2380312629230091
:1002E800340F8129350A031D81292500220823009E
:1002F800B500250021082300B40035082500220692
:10030800031D8A292300340825002106031D2629F8
:10031800FB01250025087B020318262921006C080B
:10032800203E860003308700E030F50066278031E4
:10033800CA2780312100EC0A2300B40A0319B50A40
:10034800403021006C06031DAB298F228031FB0A47
:100358008D298F228031FF302300B400B500262973
:100368002000B01B080007302400A000B827803107
:10037800A100413FA200423FA300433FA400250043
:1003880025082400A500A1308600403FF700413F22
:10039800F800423FF900433FFA00FA36F90CF80C2E
:1003A800F70C78082300920077089100FB012500DC
:1003B80025087B02031822297A08031DEB290E3031
:1003C80077020030783B0130793B031CEF2923008A
:1003D80015179201F12923001513151400000000C8
:1003E8006030F500662780318600023087002300E0
:1003F80013088100FB0A250025087B02031822291F
:100408002300130A3F30031914066030F50003195E
:10041800132A66278031860023001408192A6627C4
:100428008031860002308700FF3081002300910A66
:100438000319920AFB0ADB297D20803126290C301A
:100448002400A0000230A1000130A2000230840084
:1004580089308500003FA300013FA4001230A801A5
:10046800A701A6006D30A501A9003430AA004030CC
:10047800AB00FF30AC01AD01AE01AF00B000B10080
:10048800B200B300B400B500B600B700B800B900B8
:10049800BA00BB00BC002000B01B0800222935238D
:1004A8008031262925002008023A0319F028013A4C
:1004B80003192929073A03193329013A03195A2933
:1004C800033A0319AD29013A0319B4290F3A03195C
:1004D800532A013A0319202A053A0319232A2629FF
:1004E8000800F0008B133A238031B53070060319E9
:1004F800822A0330210099006300802A64002300C7
:10050800151555309600AA30960095140000000085
:100518002300151108002100E90123003508F40023
:100528003408F30021006C08F302031CF4030930BB
:10053800F436F30C7402003003197302031C08002C
:10054800203074020030031973020318080074087D
:10055800230092007308910011082200EA001F305E
:10056800EA05E030230091052100EA012300151374
:1005780015121F3021006A06031DC52A2300951293
:10058800C72A2300951622006A08031DDD2A2100C8
:100598006C080319DA2A690877278031E90AEC031D
:1005A800690890278031E90AEC03E12AC4278031E1
:1005B800E12AC42780312200EA03B5307522803150
:1005C800910A0319920A21002030EA0A6A02031CE0
:1005D800BA2AEA016C086A02031808006A08203E71
:1005E80086000330870020306A07F1006908710728
:1005F800F20084000330850000088100EA0AEE2A30
:10060800F2002100E2012000AC1B080070082D0256
:100618000318102B2D08F0002100E2017008620277
:100628000318242B62087207F10086000230870045
:100638006208A03E8400850100088100E20A122BAE
:1006480040302000AD00AC0503102C1F0314031C20
:10065800302B20002C17322B20002C13AC15AC1794
:100668000800BD2301000000000008000800B827AA
:100678008031F100413FF200F236F10C710823009D
:100688009100920125002508FE3E2200E900210084
:10069800E8012500250821006802031808006808F9
:1006A80022006906031D5B2B230095125D2B230096
:1006B8009516E0306D27803102308700010823004D
:1006C80093002100E030E80A6D27803101082300FB
:1006D8009400151715129512B53075228031910ABC
:1006E8000319920A2100E80A4D2BF20041307002EA
:1006F800031C802B4030F000F301700873020318CC
:10070800912B7308203E860001308700730872071A
:10071800F100CA278031F30A812B70082000B1004C
:100728004030B0050310301F0314031C9E2B20001B
:100738003017A02B20003013B015B01708003D006B
:100748008E1DA82BBD2380312200E301662C2200D8
:10075800630BB02BBD2380313D008E011530910015
:1007680092018E153F242100ED01ED0A2200E301DC
:1007780008003D008E108E01FF30F000F100C72305
:100788002100ED01080070087104031908006424B1
:1007980080310130F0020030F13BC72B66248031F4
:1007A80021006D08031908003D00101DDD2BB72539
:1007B80080318E180800101CE32B3F2480313D0047
:1007C800101EE82BA1258031033021006D02031C87
:1007D80008002200E8013D00901D08000F080F08DE
:1007E8007C39031D2F2C8F18FB2B2030FC2B243039
:1007F8002100E6003D00901121006608860087016F
:10080800010C890C0F390D3A031D382CE5016508D8
:10081800A03E8600013087006608023E84008501FC
:10082800003FF300013FF40073088400740885005A
:10083800000881006608023E8600013087018107B2
:1008480041310318810A0830E50A6502031C0B2CA4
:100858004F258031382C04300F06031D372C90119A
:100868006E248031382C901122000430E80A680286
:1008780003180800EF2B03302100ED003D0097011D
:1008880090017B30920096018827803116309800BD
:100898000E173D00901D542C9011642480314D2C6E
:1008A8000E130E1204302300A8000030F524803106
:1008B8002200E501E50AE40121000030EF01E62D00
:1008C800640008002200630B6A2C08003D008E19A2
:1008D8000800AB2B043021006D06031D7F2C23007C
:1008E80022083D009600160803197C2C05307D2C43
:1008F80003302100ED002200670B08001825803125
:1009080002306706031D8D2C04302000A800A817AC
:1009180008002000281B922C4830932C0830A8008F
:10092800A817080022006608031DAF2C0430200019
:10093800A800A81704302300A8002200650BA92CE2
:100948000130F5242200E50108000030F5242200DA
:10095800E501E50A08002300A01FD22C2200E701C8
:10096800E70A23002F082702031DBC2C2E082602A5
:100978000318C22C2708AF002608AE0018258031BE
:1009880048302300A8000130F52480310030F524D8
:10099800803150302000AA00AB01D02F0230220055
:1009A800E70004302300A80026082704031DDE2CD6
:1009B8004830A8002200650BE72C0130F52480316F
:1009C8002200E501ED2C0030F52480312200E501FC
:1009D800E50A230026082704031D08002000A901B2
:1009E800D02FF00008302300A9004830AA00AB013E
:1009F8007008031D042D4030AA002030AB01052DDE
:100A08002430AC00AD0186002D0887002808C03FBF
:100A18002908C13F2A08C23F2B08C33F2C0886007B
:100A28002D0887008117080008302100E4000030F5
:100A380023002F02083003192E020318302D2E0828
:100A48002100E4006708031D2C2DE701E70A302D7B
:100A5800670B302D0230E700210064082000A90050
:100A6800210064082300AE02031CAF0350302100AC
:100A7800E0002200E418432D4A2D5327803121003D
:100A8800640803190800412D5327803121006408A8
:100A980003190800482D2000A8012100E7012000C3
:100AA800A01F592DA0012200E5012000A41F602DE0
:100AB800A4012200E501E50A2200E701E60123007E
:100AC800AE01AF013D000E126E2580316D258031DB
:100AD800962C0C2E2300200E890C0339031D0800C8
:100AE800962D080022000430E601E60A2100ED00F8
:100AF8000800C92EC42D2200EF30E601E60A2300C3
:100B0800B0000030B1009E2F102F862EA427803110
:100B1800B0000030B101872DA42786008701220884
:100B280081000800210884000D3004020318080021
:100B380088310435B03E8200080012082200E20025
:100B480004303D00920010128E1420001211210072
:100B580012150B174B270B132100121122006208E4
:100B68003D0092040800C02580313D008E1012110E
:100B7800101D08001011BC2D0330F001F100C72B27
:100B88002200E601E60A3D00882780312100E301C2
:100B98006308EE3E860087018101E30A0319CC2D24
:100BA800230022082100EF00E625803123002208D7
:100BB800031DE22D05302100ED000800063021005C
:100BC800ED000800F000700B0800EC258031002EC5
:100BD8001E30E2013D00990040302000AD00A030F9
:100BE800AE00AF010830AC00AC172030B2000130C5
:100BF800B3004030B00008002200FF30EC012300B1
:100C0800B400B5002100EC012200EB01EB0A08005A
:100C1800230020081F39013A031D08002408031D7A
:100C28000800063021060319372E442E0230220010
:100C3800E6003E302300B0008830B1000930342E81
:100C480002302200E60021006F0B2F2E9330230084
:100C5800B0008830B10021006F0B422E1D302300F8
:100C6800AE00AF01422E2308213A03191A2E033A87
:100C78000319242E013A0319422E422E2200E414AD
:100C88002300200E890C0339013A031D08006F2E3A
:100C9800842E852E02302200E6006E302300B0003C
:100CA8000130B1009E2F02302200E6002300230805
:100CB8002200EE00080002302200E6006D3023001A
:100CC800B0000130552E02302200E6002300220831
:100CD8002200ED0008002108013A03194C2E033ABE
:100CE80003194E2E013A03195F2E0A3A03194D2EA5
:100CF800033A0319572E013A0319672E832E080069
:100D0800080008002300220B9A2E20081F39031D13
:100D18009A2E22000330E601E60A23002106031D6D
:100D2800982E220064149A2E2200641023002208B0
:100D3800031D080020081F39023A031D0800240873
:100D48000F390319080080278031F000F035F0359D
:100D5800B127803170072100E0000330230021060D
:100D6800031DBB2E2100600886000430AB2FA41F92
:100D7800C42E2100600886004030870181000800E9
:100D88002100600886000830AB2F80302300200641
:100D9800031D0800022F2200CA30E601E60A2300DC
:100DA800B0008830B1001230AE000D2F2208031DAC
:100DB8000D2F22002C30E601E60A2300B00088300F
:100DC800B1002930FF2E2200E601E60A230022089E
:100DD800F000DC30F101F035F10D70078400883047
:100DE800713D8500003FB000013FB100300884002C
:100DF800310885000008AE00AF010D2F2308013A25
:100E08000319CF2E033A0319DA2E013A0319E72EF4
:100E18000D2F2200E41408002000D001D101322F48
:100E28002200E601E60A641C3E2F2000D0143E2F63
:100E38002200E601E60A3E2F80278031F000F035D7
:100E4800F035B127803170072100E0008600870166
:100E5800011D3E2F01302000D0003E2F2300200826
:100E68001F390319142F013A03191C2F033A0319C8
:100E7800202F3E2F2200660B080050302300B000C0
:100E8800B10122000230E4102300AE000800220065
:100E98000E10630020001219080063004E2F60082E
:100EA8008600870123003008840031088500000887
:100EB80081002100E00A2300B00A0319B10A2100C9
:100EC800E403080025002508F5027B087507F600ED
:100ED8000800F10025002508F102210068087107C3
:100EE800F20086000800203E8600033087000108D3
:100EF80023009300210008002200E601E60A2300EF
:100F0800240D240D0139080099019A019B019C01C7
:100F18009D019E019F010800203E860001082300D4
:100F2800940021000800910A0319920A4030210018
:100F38006B0208002200E4102300AE01AE0A08008C
:100F48002200E601E60A23002408EE3E0800870195
:100F58008100600886008117080024080F390907F6
:100F680009070907243E0800A130860002308700DF
:100F7800403F080009302300920091011513080032
:100F88003F3023009400FF309300080084000230B3
:100F980085000008810008004830A800A81708004C
:100FA8002C340334433400345634003420340034B1
:100FB8004834003449340034443400342034003494
:100FC800553400345334003442340034203400346F
:100FD800423400346F3400346F34003474340034D5
:100FE8006C3400346F3400346134003464340034B9
:100FF80065340034723400342C34033477340034CC
:1010080077340034773400342E34003443340034D9
:101018006934003472340034633400347534003475
:101028006934003474340034563400346134003484
:101038006C3400346C340034653400347934003452
:101048002E340034633400346F3400346D3400348B
:101058000934023429340034013401340034803432
:101068003234093404340034003402340334003494
:10107800003400340934213411340134003401348B
:1010880022341D34003407340534813403344034A9
:101098000034013407340534013403344034003457
:1010A800013401302300B2020030B33B320833046C
:1010B800031D08004E30B201B300063021006D0256
:1010C8000318692822000E140800031022000E1CC1
:1010D8000314031C722822000E14080022000E10AC
:1010E80008001E34033443340034563400342034AA
:1010F80000345534003453340034423400344F340F
:1011080000344F3400345434003446340034463408
:10111800003446340034463400344634003406344F
:101128000034FF3409340134A13401341934013452
:1011380029344034153400342634FF3400347534EF
:101148000834953440348134003419340134293456
:10115800403491340034C0348531882D8531892D4F
:101168008531A02D8531892D8531A02D8531762DAC
:1011780085317D2D8531752D85317F2D85317E2DEC
:1011880085318A2D8531902D8531A02D1234013479
:101198000034023400340034003408340934123482
:1011A800783477340134013401340234033401349F
:1011B800E434883400348834D4348734753488343B
:0811C80004340334093404343B
:021200006D344B
:020000040001F9
:04000E00A4CFCFDFCD
:00000001FF
